:020000040000FA
:060000000A128A11122809
:10000800FE00030E83120313D1000408D2000A086D
:10001800D3007F08D4000A128A116C2D0A128A11A3
:10002800152883132030840041300A128A11CA2708
:1000380083010A128A11A62D83120313D9002008FE
:10004800031DE0285908D60004300310D60CFF3EE3
:10005800031D292801305605D7000808FE39570422
:10006800D800580888005908D60005300310D60C67
:10007800FF3E031D3A2856080139D7000130031006
:10008800D70DFF3E031D43280808FD395704D80043
:10009800580888005908D60006300310D60CFF3ED1
:1000A800031D512856080139D70002300310D70D17
:1000B800FF3E031D5A280808FB395704D800580882
:1000C80088005908D60007300310D60CFF3E031DE0
:1000D800682856080139D70003300310D70DFF3EB2
:1000E800031D71280808F7395704D80058088800F4
:1000F8000A128A119A270A128A11413083120313AD
:10010800D600D60B85288828013083120313590599
:10011800D6000808FE395604D70057088800590841
:10012800D6000310560C0139D70001300310D70D43
:10013800FF3E031D9A280808FD395704D8005808BF
:1001480088005908D60002300310D60CFF3E031D64
:10015800A82856080139D70002300310D70DFF3EF2
:10016800031DB1280808FB395704D800580888002F
:100178005908D60003300310D60CFF3E031DBF28D4
:1001880056080139D70003300310D70DFF3E031D71
:10019800C8280808F7395704D800580888000A12F0
:1001A8008A119A270A128A11413083120313D60042
:1001B800D60BDC28DF28080001305905D6000808CE
:1001C800FE395604D700570888005908D60003108E
:1001D800560C0139D70001300310D70DFF3E031D1F
:1001E800F0280808FD395704D8005808880059082D
:1001F800D60002300310D60CFF3E031DFE28560819
:100208000139D70002300310D70DFF3E031D07291F
:100218000808FB395704D800580888005908D60040
:1002280003300310D60CFF3E031D1529560801396B
:10023800D70003300310D70DFF3E031D1E29080801
:10024800F7395704D800580888005908D6000430F0
:100258000310D60CFF3E031D2C2956080139D70080
:1002680004300310D70DFF3E031D35290808EF3968
:100278005704D800580888005908D60005300310DC
:10028800D60CFF3E031D432956080139D700053017
:100298000310D70DFF3E031D4C290808DF3957040A
:1002A800D800580888005908D60006300310D60C24
:1002B800FF3E031D5A2956080139D700063003109E
:1002C800D70DFF3E031D63290808BF395704D8001E
:1002D800580888005908D60007300310D60CFF3E8E
:1002E800031D712956080139D70007300310D70DAF
:1002F800FF3E031D7A2908087F395704D80058089B
:1003080088000A128A119A270800F400831203133E
:100318002008031D452A7408F10004300310F10C6D
:10032800FF3E031D922901307105F2000808FE39CD
:100338007204F300730888007408F1000530031094
:10034800F10CFF3E031DA32971080139F2000130A9
:100358000310F20DFF3E031DAC290808FD39720495
:10036800F300730888007408F10006300310F10CDC
:10037800FF3E031DBA2971080139F200023003104B
:10038800F20DFF3E031DC3290808FB397204F30070
:10039800730888007408F10007300310F10CFF3E61
:1003A800031DD12971080139F20003300310F20D41
:1003B800FF3E031DDA290808F7397204F3007308B1
:1003C80088000A128A11AC270A128A114230F100F9
:1003D800F10BEC29000001307405F10083120313BE
:1003E8000808FE397104F200720888007408F100E8
:1003F8000310710C0139F20001300310F20DFF3EB9
:10040800031D012A0808FD397204F30073088800E7
:100418007408F10002300310F10CFF3E031D0F2A8F
:1004280071080139F20002300310F20DFF3E031D7E
:10043800182A0808FB397204F30073088800740846
:10044800F10003300310F10CFF3E031D262A71084A
:100458000139F20003300310F20DFF3E031D2F2A6D
:100468000808F7397204F300730888000A128A1121
:10047800AC270A128A114230F100F10B412A000020
:10048800080001307405F1000808FE397104F20013
:10049800720888007408F1000310710C0139F20029
:1004A80001300310F20DFF3E031D552A0808FD39DF
:1004B8007204F300730888007408F1000230031016
:1004C800F10CFF3E031D632A71080139F200023066
:1004D8000310F20DFF3E031D6C2A0808FB39720455
:1004E800F300730888007408F10003300310F10C5E
:1004F800FF3E031D7A2A71080139F2000330031008
:10050800F20DFF3E031D832A0808F7397204F30031
:10051800730888007408F10004300310F10CFF3EE2
:10052800031D912A71080139F20004300310F20DFD
:10053800FF3E031D9A2A0808EF397204F300730876
:1005480088007408F10005300310F10CFF3E031D0C
:10055800A82A71080139F20005300310F20DFF3E98
:10056800031DB12A0808DF397204F30073088800F4
:100578007408F10006300310F10CFF3E031DBF2A7A
:1005880071080139F20006300310F20DFF3E031D19
:10059800C82A0808BF397204F30073088800740871
:1005A800F10007300310F10CFF3E031DD62A710835
:1005B8000139F20007300310F20DFF3E031DDF2A58
:1005C80008087F397204F300730888000A128A1138
:1005D800AC27080083160313A2000908FE39A000FF
:1005E800200889000908FD39A000200889000808AA
:1005F800FE39A00020088800831203130808FE397A
:1006080083160313A000200883120313880083169F
:1006180003130808FD39A00020088800831203137B
:100628000808FD3983160313A0002008831203135A
:100638008800831603130808FB39A00020088800E7
:10064800831203130808FB3983160313A00020083C
:10065800831203138800831603130808F739A000D0
:1006680020088800831203130808F7398316031338
:10067800A00020088312031388008316031322089E
:10068800A000200883120313A0008316031322037B
:10069800031D942B0808EF39A00020088800831256
:1006A80003130808EF3983160313A00020088312E8
:1006B80003138800831603130808DF39A0002008F5
:1006C8008800831203130808DF3983160313A00078
:1006D8002008831203138800831603130808BF3900
:1006E800A00020088800831203130808BF39831666
:1006F8000313A00020088312031388008316031332
:1007080008087F39A000200888008312031308080E
:100718007F3983160313A00020088312031388006F
:10072800343083160313A100F130A000A00B9A2BDC
:10073800A10B9A2B30300A128A1137270A128A1114
:100748000D3083160313A100FB30A000A00BAA2BC9
:10075800A10BAA2B30300A128A1137270A128A11E4
:10076800033083160313A1009730A000A00BBA2B07
:10077800A10BBA2B30300A128A1137270A128A11B4
:10078800831203132003031DCB2B3830D82B3330AF
:100798000A128A1137270A128A1132300A128A116C
:1007A80037270A128A1128300A128A1137270A12A3
:1007B8008A110C300A128A1137270A128A1101305D
:1007C8000A128A1137270A128A1106308316031370
:1007D800A1002F30A000A00BEF2BA10BEF2BF42BC7
:1007E800080083120313D700312C831603138111D9
:1007F80001108110011108008316031381110114DF
:10080800811001110800831603138111011081144E
:1008180001110800831603138111011481140111B9
:1008280008008316031381110110811001150800B7
:100838008316031381110114811001150800831612
:100848000313811101108114011508008316031385
:10085800811101148114011508005708D500D6012B
:100868005608003A0319392C532C5508003A031935
:10087800F92B013A0319002C033A0319072C013A02
:1008880003190E2C073A0319152C013A03191C2CCD
:10089800033A0319232C013A03192A2C532C080074
:1008A80083120313CA01CB010530C9004908A10707
:1008B80014302102031C0800A1014A300A128A11CF
:1008C800BE270A128A1183120313CC01CD013F30CF
:1008D800F0000030F1004B08F3004A08F2000A1259
:1008E8008A1130250A128A117108831203134D02E6
:1008F800031D802C70084C0203189F2C2A30C90055
:100908004C08233E84004908831380000130CC073B
:100918000318CD0A0030CD076B2C2030C9004C08D5
:10092800233E84004908831380000130CC07031854
:10093800CD0A0030CD0700304D02103003194C02AB
:10094800031C912CB3012330C3000030C400C5013F
:10095800C50AC6010A128A11D9250800831603138D
:10096800A00020080A128A11F5230A128A1183129C
:10097800031358080A128A117C260A128A11831254
:10098800031359080A128A11ED260A128A11DA2C61
:1009980001300A128A1199260A128A11EC2C0130A8
:1009A8000A128A11B6260A128A11EC2C8312031332
:1009B8005808DA00DB015B08003A0319E42CEC2C38
:1009C8005A08003A0319CC2C013A0319D32CEC2C01
:1009D800FF300A128A11D2270800831603132A0847
:1009E80083120313FF00831603132908840083125C
:1009F80003130A128A11D3260A128A11003A03191C
:100A08000800831603132B08AD002D08A5002C0839
:100A1800AE002E08A6002A0883120313FF008316CF
:100A2800031329088400831203130A128A11D32698
:100A38000A128A110A128A115C260A128A110130D6
:100A480083160313A9070318AA0A0030AA0701305E
:100A5800AD002D08AC07F12CF501F6017008710402
:100A68000319672DF701F70AF11B462D0130031012
:100A7800F00DF10DFF3E031D3B2D0130F40074080D
:100A8800F707382D01300310F50DF60DFF3E031D55
:100A9800472D71087302031D532D70087202031C41
:100AA8005C2D7008F2027108031CF303F30275143D
:100AB80001300310F10CF00CFF3E031D5D2D0130D9
:100AC800F702031D462D7608F1007508F0000800AE
:100AD8000B1D992D0708CE0005300310CE0CFF3EE4
:100AE800031D712D4E187A2D01307B2D0030CF005B
:100AF80005300310CF0DFF3E031D7D2D0708DF399C
:100B08004F04D000500887000A128A114D270A1294
:100B18008A110A128A1154240A128A110B11D83028
:100B28000A128A11DA270A128A1183120313540847
:100B3800FF0053088A0052088400510E8300FE0EFD
:100B48007E0E090083120313D801D90107300A1257
:100B58008A11B2240A128A11D8300A128A11D227AD
:100B68000A128A110A128A11E2270A128A110A1233
:100B78008A1188270A128A11831603130708DF3996
:100B8800AF002F088700831203130708DF39831685
:100B98000313AF002F0883120313870000300A12D3
:100BA8008A1199260A128A11D82D83120313440830
:100BB800FF00430884000A128A11D3260A128A11F8
:100BC800003A031908004508C7004708FC00460812
:100BD800C8004808FD004408FF00430884000A12C2
:100BE8008A11D3260A128A110A128A1107270A12B1
:100BF8008A11013083120313C3070318C40A003093
:100C0800C4070130C7004708C607D92DF30083126F
:100C180003131F147308F10003300310F10DFF3E96
:100C2800031D112E1F08C7397104F20072089F00B6
:100C38001330F100F10B1E2E212E831203131F1502
:100C48001F19242E1E08F500831603131E08F4002E
:100C580070088400740883138000840A7508800073
:100C6800831203131F100800831603130508FD39A8
:100C7800023883120313D500550883160313850021
:100C8800831203131F10831603131F08F039023849
:100C980083120313D5005508831603139F0083128C
:100CA80003131F179F13831603131F139F1708009F
:100CB80083160313A8002608A7002708A000250804
:100CC8000A128A1121270A128A11831203130908AA
:100CD800FE39013883160313A7002708831203136C
:100CE80089008316031328080A128A112020080095
:100CF80083120313D700882E83160313811208006A
:100D080083160313811608005708D500D601560824
:100D1800003A0319902E982E5508003A0319802E90
:100D2800013A0319842E982E080083120313D70062
:100D3800A52E831603138112080083160313811648
:100D480008005708D500D6015608003A0319AD2EF9
:100D5800B52E5508003A03199D2E013A0319A12E04
:100D6800B52E080083120313D700C22E831603136F
:100D78008116080083160313811208005708D5004E
:100D8800D6015608003A0319CA2ED22E5508003A41
:100D98000319BA2E013A0319BE2ED22E0800FF1BE2
:100DA800DD2E83137F1883170008840A0319FF0AAE
:100DB800080006308A000408840A82070034563482
:100DC8004F344C3455344D34453420343A3420347F
:100DD800003483120313D700F62E8B178B160800E6
:100DE8008B1208005708D500D6015608003A031997
:100DF800FE2E062F5508003A0319F12E013A031961
:100E0800F42E062F080083120313C2007D08C100C8
:100E18004108F7007C080A128A1161270A128A1110
:100E2800831203130908FE390138C10041088900FB
:100E380042080A128A118921080083160313A300A5
:100E48002308A10006300310A10DFF3E031D272F24
:100E580020082107A2002208A400240880380A12CA
:100E68008A113727080083120313DB000908FE39AB
:100E7800DA005A0889005B080A128A1120200A122F
:100E88008A11203083120313DA00DA0B492F00008D
:100E980008000530F600760883120313A207143001
:100EA8002202031C0800A2013F30F6007608F00079
:100EB80001300A128A110A260800FA007A08F80096
:100EC80006300310F80DFF3E031D652F77087807DD
:100ED800F9007908FB007B0880380A128A11752707
:100EE8000800F600831203130908FE39F500750897
:100EF800890076080A128A1189210A128A1121307A
:100F0800F500F50B852F080001300A128A11EE2230
:100F18000A128A11013083160313A9008030AA002F
:100F2800AB01AC010A128A11F124080083120313E1
:100F38000908FD390238D50055088900A32F831206
:100F480003130908FD39D50055088900AB2F08009F
:100F5800831203130908FD390238F000700889006C
:100F6800B52F831203130908FD39F00070088900B2
:100F7800BD2F0800F00070088400831203133F0897
:100F880083138000840A4008800008006400800100
:100F9800840A0406031900340406CB2F83120313B2
:100FA800D6005608D500550881000800F1007108E0
:100FB800F000700883120313810008000A128A11D6
:040FC80038260800BF
:02400E00723FFF
:00000001FF
